{
  "_format": "hh-sol-artifact-1",
  "contractName": "registerAIGeneratedContent",
  "sourceName": "contracts/YourContract.sol",
  "abi": [
    {
      "anonymous": false,
      "inputs": [
        {
          "indexed": true,
          "internalType": "bytes32",
          "name": "contentHash",
          "type": "bytes32"
        },
        {
          "indexed": true,
          "internalType": "address",
          "name": "creator",
          "type": "address"
        },
        {
          "indexed": false,
          "internalType": "string",
          "name": "prompt",
          "type": "string"
        },
        {
          "indexed": false,
          "internalType": "string",
          "name": "response",
          "type": "string"
        },
        {
          "indexed": false,
          "internalType": "string",
          "name": "ipfsID",
          "type": "string"
        },
        {
          "indexed": false,
          "internalType": "uint256",
          "name": "timeStamp",
          "type": "uint256"
        }
      ],
      "name": "ContentRegistered",
      "type": "event"
    },
    {
      "inputs": [],
      "name": "allContentHashes",
      "outputs": [
        {
          "internalType": "bytes32[]",
          "name": "",
          "type": "bytes32[]"
        }
      ],
      "stateMutability": "view",
      "type": "function"
    },
    {
      "inputs": [
        {
          "internalType": "bytes32",
          "name": "",
          "type": "bytes32"
        }
      ],
      "name": "contentByHash",
      "outputs": [
        {
          "internalType": "string",
          "name": "prompt",
          "type": "string"
        },
        {
          "internalType": "string",
          "name": "response",
          "type": "string"
        },
        {
          "internalType": "address",
          "name": "creator",
          "type": "address"
        },
        {
          "internalType": "string",
          "name": "ipfsID",
          "type": "string"
        },
        {
          "internalType": "uint256",
          "name": "timeStamp",
          "type": "uint256"
        }
      ],
      "stateMutability": "view",
      "type": "function"
    },
    {
      "inputs": [
        {
          "internalType": "bytes32",
          "name": "contentHash",
          "type": "bytes32"
        }
      ],
      "name": "contentExists",
      "outputs": [
        {
          "internalType": "bool",
          "name": "",
          "type": "bool"
        }
      ],
      "stateMutability": "view",
      "type": "function"
    },
    {
      "inputs": [
        {
          "internalType": "uint256",
          "name": "",
          "type": "uint256"
        }
      ],
      "name": "contentHashes",
      "outputs": [
        {
          "internalType": "bytes32",
          "name": "",
          "type": "bytes32"
        }
      ],
      "stateMutability": "view",
      "type": "function"
    },
    {
      "inputs": [
        {
          "internalType": "bytes32",
          "name": "contentHash",
          "type": "bytes32"
        }
      ],
      "name": "getContentByHash",
      "outputs": [
        {
          "internalType": "string",
          "name": "prompt",
          "type": "string"
        },
        {
          "internalType": "string",
          "name": "response",
          "type": "string"
        },
        {
          "internalType": "address",
          "name": "creator",
          "type": "address"
        },
        {
          "internalType": "string",
          "name": "ipfsID",
          "type": "string"
        },
        {
          "internalType": "uint256",
          "name": "timeStamp",
          "type": "uint256"
        }
      ],
      "stateMutability": "view",
      "type": "function"
    },
    {
      "inputs": [
        {
          "internalType": "string",
          "name": "response",
          "type": "string"
        }
      ],
      "name": "getHashByContent",
      "outputs": [
        {
          "internalType": "bytes32",
          "name": "",
          "type": "bytes32"
        }
      ],
      "stateMutability": "view",
      "type": "function"
    },
    {
      "inputs": [
        {
          "internalType": "string",
          "name": "",
          "type": "string"
        }
      ],
      "name": "hashByContent",
      "outputs": [
        {
          "internalType": "bytes32",
          "name": "",
          "type": "bytes32"
        }
      ],
      "stateMutability": "view",
      "type": "function"
    },
    {
      "inputs": [
        {
          "internalType": "bytes32",
          "name": "contentHash",
          "type": "bytes32"
        },
        {
          "internalType": "string",
          "name": "prompt",
          "type": "string"
        },
        {
          "internalType": "string",
          "name": "response",
          "type": "string"
        },
        {
          "internalType": "string",
          "name": "ipfsID",
          "type": "string"
        }
      ],
      "name": "registerAIContent",
      "outputs": [],
      "stateMutability": "nonpayable",
      "type": "function"
    }
  ],
  "bytecode": "0x608060405234801561001057600080fd5b50610d34806100206000396000f3fe608060405234801561001057600080fd5b50600436106100885760003560e01c8063922bba251161005b578063922bba25146101375780639f519aca1461014a578063d5752e4b1461015d578063f6c296cf1461017257600080fd5b80634c279f561461008d5780635503889e146100c757806359638db9146100e85780635d23492b14610113575b600080fd5b6100b261009b366004610837565b600090815260208190526040902060040154151590565b60405190151581526020015b60405180910390f35b6100da6100d5366004610899565b610187565b6040519081526020016100be565b6100da6100f63660046108f1565b805160208183018101805160018252928201919093012091525481565b610126610121366004610837565b6101b2565b6040516100be9594939291906109e8565b610126610145366004610837565b6103a7565b6100da610158366004610837565b61057c565b61016561059d565b6040516100be9190610a43565b610185610180366004610a87565b6105f5565b005b60006001838360405161019b929190610b2b565b908152602001604051809103902054905092915050565b60008181526020819052604081206002810154600482015482546060948594909385938593839260018401926001600160a01b039091169160038501919085906101fb90610b3b565b80601f016020809104026020016040519081016040528092919081815260200182805461022790610b3b565b80156102745780601f1061024957610100808354040283529160200191610274565b820191906000526020600020905b81548152906001019060200180831161025757829003601f168201915b5050505050945083805461028790610b3b565b80601f01602080910402602001604051908101604052809291908181526020018280546102b390610b3b565b80156103005780601f106102d557610100808354040283529160200191610300565b820191906000526020600020905b8154815290600101906020018083116102e357829003601f168201915b5050505050935081805461031390610b3b565b80601f016020809104026020016040519081016040528092919081815260200182805461033f90610b3b565b801561038c5780601f106103615761010080835404028352916020019161038c565b820191906000526020600020905b81548152906001019060200180831161036f57829003601f168201915b50505050509150955095509550955095505091939590929450565b6000602081905290815260409020805481906103c290610b3b565b80601f01602080910402602001604051908101604052809291908181526020018280546103ee90610b3b565b801561043b5780601f106104105761010080835404028352916020019161043b565b820191906000526020600020905b81548152906001019060200180831161041e57829003601f168201915b50505050509080600101805461045090610b3b565b80601f016020809104026020016040519081016040528092919081815260200182805461047c90610b3b565b80156104c95780601f1061049e576101008083540402835291602001916104c9565b820191906000526020600020905b8154815290600101906020018083116104ac57829003601f168201915b505050600284015460038501805494956001600160a01b039092169491935091506104f390610b3b565b80601f016020809104026020016040519081016040528092919081815260200182805461051f90610b3b565b801561056c5780601f106105415761010080835404028352916020019161056c565b820191906000526020600020905b81548152906001019060200180831161054f57829003601f168201915b5050505050908060040154905085565b6002818154811061058c57600080fd5b600091825260209091200154905081565b606060028054806020026020016040519081016040528092919081815260200182805480156105eb57602002820191906000526020600020905b8154815260200190600101908083116105d7575b5050505050905090565b600087815260208190526040902060040154156106515760405162461bcd60e51b8152602060048201526016602482015275436f6e74656e7420616c72656164792065786973747360501b604482015260640160405180910390fd5b6040518060a0016040528087878080601f016020809104026020016040519081016040528093929190818152602001838380828437600092019190915250505090825250604080516020601f8801819004810282018101909252868152918101919087908790819084018382808284376000920191909152505050908252503360208083019190915260408051601f860183900483028101830182528581529201919085908590819084018382808284376000920182905250938552505042602093840152508981529081905260409020815181906107309082610bc4565b50602082015160018201906107459082610bc4565b5060408201516002820180546001600160a01b0319166001600160a01b03909216919091179055606082015160038201906107809082610bc4565b506080820151816004015590505086600185856040516107a1929190610b2b565b90815260405190819003602001812091909155600280546001810182556000919091527f405787fa12a823e0f2b7631cc41b3ba8828b3321ca811111fa75cd3aa3bb5ace01889055339088907fdbc814057b73e678bbd9ab2702643863ce09718884a99ba9e1c276517c367c3590610826908a908a908a908a908a908a904290610cad565b60405180910390a350505050505050565b60006020828403121561084957600080fd5b5035919050565b60008083601f84011261086257600080fd5b50813567ffffffffffffffff81111561087a57600080fd5b60208301915083602082850101111561089257600080fd5b9250929050565b600080602083850312156108ac57600080fd5b823567ffffffffffffffff8111156108c357600080fd5b6108cf85828601610850565b90969095509350505050565b634e487b7160e01b600052604160045260246000fd5b60006020828403121561090357600080fd5b813567ffffffffffffffff8082111561091b57600080fd5b818401915084601f83011261092f57600080fd5b813581811115610941576109416108db565b604051601f8201601f19908116603f01168101908382118183101715610969576109696108db565b8160405282815287602084870101111561098257600080fd5b826020860160208301376000928101602001929092525095945050505050565b6000815180845260005b818110156109c8576020818501810151868301820152016109ac565b506000602082860101526020601f19601f83011685010191505092915050565b60a0815260006109fb60a08301886109a2565b8281036020840152610a0d81886109a2565b6001600160a01b038716604085015283810360608501529050610a3081866109a2565b9150508260808301529695505050505050565b6020808252825182820181905260009190848201906040850190845b81811015610a7b57835183529284019291840191600101610a5f565b50909695505050505050565b60008060008060008060006080888a031215610aa257600080fd5b87359650602088013567ffffffffffffffff80821115610ac157600080fd5b610acd8b838c01610850565b909850965060408a0135915080821115610ae657600080fd5b610af28b838c01610850565b909650945060608a0135915080821115610b0b57600080fd5b50610b188a828b01610850565b989b979a50959850939692959293505050565b8183823760009101908152919050565b600181811c90821680610b4f57607f821691505b602082108103610b6f57634e487b7160e01b600052602260045260246000fd5b50919050565b601f821115610bbf57600081815260208120601f850160051c81016020861015610b9c5750805b601f850160051c820191505b81811015610bbb57828155600101610ba8565b5050505b505050565b815167ffffffffffffffff811115610bde57610bde6108db565b610bf281610bec8454610b3b565b84610b75565b602080601f831160018114610c275760008415610c0f5750858301515b600019600386901b1c1916600185901b178555610bbb565b600085815260208120601f198616915b82811015610c5657888601518255948401946001909101908401610c37565b5085821015610c745787850151600019600388901b60f8161c191681555b5050505050600190811b01905550565b81835281816020850137506000828201602090810191909152601f909101601f19169091010190565b608081526000610cc160808301898b610c84565b8281036020840152610cd481888a610c84565b90508281036040840152610ce9818688610c84565b9150508260608301529897505050505050505056fea2646970667358221220cccf16c5a906e941f9b852076febbba0dbefacbeabf674464b564fd13239c34964736f6c63430008140033",
  "linkReferences": {},
  "deployedLinkReferences": {}
}